:1000FD000000324949493E00000036494949360061
:10010D00000040404F50600000003E494949260024
:10011D000000725151514E0000000C14247F040058
:10012D0000002A4949493600000027454545390058
:10013D00000000217F01000000003E4141413E00D2
:0A017E0008087FBFDFEFF7FBFDFE6E
:0B017300EF1FAC0670011E4C70F6225E
:10014D00C2B6C2B5E4FEEFC4131313540124FF92DB
:10015D00B4EF25E0FFD2B60000C2B60EBE08E7D25E
:05016D00B50000C2B561
:01017200226A
:10008F00E4F510F511E4FBFA74082BF8E6F580E5BA
:10009F001375F008A424FDF582E43400F583E5829E
:1000AF002BF582E43583F583E493FF12014D7F96A0
:1000BF007E00120173E4FF12014D0BBB00010AEB2E
:1000CF0064084A70C30511E51170020510C39450FE
:1000DF00E510940040AF0513E51370020512C394A9
:0E00EF000AE51294004099E4F512F513809290
:03000000020003F8
:0C000300787FE4F6D8FD75811302004AF6
:10000F0002008FE493A3F8E493A34003F68001F278
:10001F0008DFF48029E493A3F85407240CC8C333F2
:10002F00C4540F4420C8834004F456800146F6DFC1
:10003F00E4800B010204081020408090017EE47ED2
:10004F00019360BCA3FF543F30E509541FFEE493B6
:10005F00A360010ECF54C025E060A840B8E493A37D
:10006F00FAE493A3F8E493A3C8C582C8CAC583CAA8
:10007F00F0A3C8C582C8CAC583CADFE9DEE780BE60
:010188000076
:00000001FF
