:10016A00E4F51EF51FF5201204761204701204310C
:10017A00EF605E12047FBF0C0C051EE51ED39403CC
:10018A004003751E03BF180C151EE51EC3940050CC
:10019A0003E4F51EE51E7009FF120479E4F51FF564
:1001AA0020E51EB4010B7F32120479751F007520F9
:1001BA0019E51EB4020B7F4B120479751F007520D6
:1001CA0032E51EB4030B7F64120479751F00752093
:1001DA004BAE1FAF207C007D6412037DAC06AD07D9
:1001EA007F011202AFAE1FAF207C007D6412037D37
:1001FA007E007F0ACFCDCFCECCCE12037DAC06AD2A
:10020A00077F021202AFAE1FAF207C007D0A1203E5
:09021A007D7F031202AF0201779F
:10000600EF1FAC0670011E4C600A7D027CEFDCFE21
:04001600DDFC80ECA1
:01001A0022C3
:10031C00E4F52320B1137F14FE12000630B1FD7FEB
:10032C00147E0012000675230120B0147F147E0089
:10033C0012000630B0FD7F147E00120006752302F9
:10034C0020B2147F147E0012000630B2FD7F147EA2
:10035C000012000675230320B3147F147E001200D4
:10036C000630B3FD7F147E00120006752304AF2304
:01037C00225E
:0C0424000A143F065B4F666D7D077F6F7A
:1002AF00EF14B4080050549002C475F003A4C58332
:1002BF0025F0C583730202DC0202E00202E40202AF
:1002CF00E80202EC0202F40202FC020304D2A48050
:1002DF000ED2A48012D2A48016D2A4801AC2A4D2A5
:1002EF00A3D2A28016C2A4D2A3C2A2800EC2A4C25D
:1002FF00A3D2A28006C2A4C2A3C2A274142DF8E690
:0D030F00F5807F017E00120006E4F58022DB
:1003FD0053890F438910758B9C758DFFC28FD28EDB
:07040D00D2ABD2AFC2BB224B
:030476000203FD81
:030479008F2122AE
:03001B000203D20B
:1003D200C0E0C0F0C0D0758B9C758DFF0522E52270
:1003E20075F0648485F022E522C395215004D290F1
:0B03F2008002C290D0D0D0F0D0E032EA
:0B044B00D288C289D2A8D2AFD2B8225A
:100414005389F0438901E4F58AF58CC28DC28C229C
:0B045600AD07AC068C8CAF058F8A222E
:09046100AF8CEFFEAD8AEDFF2225
:06046A00EF24FF928C223A
:0604700012041402044B0B
:0D043100E50F6006E4F50F7F01227F002239
:0D043E00E50D6006E4F50D7F01227F002230
:03047C00AF0C22A0
:03047F00AF0B229E
:0300030002001EDA
:10001E00C0E0C0F0C083C082C0D075D000C000C0A8
:10002E0001C002C003C004C005C006C007E50870C9
:10003E000CFFFE1204567F0112046A8049E5086423
:10004E000170491204618E098F0AE4FFFE120456F4
:10005E00D3E50A94C8E50994324010E50A94B0E558
:10006E00099436500675080202014FD3E50A94FE34
:10007E00E50994294010E50A94E6E509942D500609
:10008E00750D0102014775080102014FE508640272
:10009E00600302014F1204618E098F0AE4FFFE1203
:1000AE000456D3E50A946CE5099402402CE50A94B3
:1000BE0054E50994065022E50E131313541F241011
:1000CE00F8C000E6FFE50E5407FE7401A80608808E
:1000DE0002C333D8FCF45F8034D3E50A94D6E50925
:1000EE0094064030E50A94BEE509940A5026E50EC2
:1000FE00131313541F2410F8C000E6FFE50E540727
:10010E00FE7401A806088002C333D8FC4FD000F657
:10011E00050E8006750E00750801E50EC39420408D
:10012E0020750E00E511F4B5100FE513F4B51209A4
:10013E0085100C85120B750F01E4FF12046A750809
:10014E0000D007D006D005D004D003D002D001D005
:0C015E0000D0D0D082D083D0F0D0E032AE
:03000000020223D6
:0C022300787FE4F6D8FD75812302026AA2
:10037D00BC000BBE0029EF8DF084FFADF022E4CC64
:10038D00F875F008EF2FFFEE33FEEC33FCEE9DEC2D
:10039D00984005FCEE9DFE0FD5F0E9E4CEFD22ED73
:1003AD00F8F5F0EE8420D21CFEADF075F008EF2FBD
:1003BD00FFED33FD4007985006D5F0F222C398FDAE
:0503CD000FD5F0EA224B
:10022F0002016AE493A3F8E493A34003F68001F27A
:10023F0008DFF48029E493A3F85407240CC8C333D0
:10024F00C4540F4420C8834004F456800146F6DF9F
:10025F00E4800B0102040810204080900424E47E07
:10026F00019360BCA3FF543F30E509541FFEE49394
:10027F00A360010ECF54C025E060A840B8E493A35B
:10028F00FAE493A3F8E493A3C8C582C8CAC583CA86
:10029F00F0A3C8C582C8CAC583CADFE9DEE780BE3E
:0104300000CB
:00000001FF
