:10024200900000EFF0A3EDF012029C7FA01201BC1F
:10025200120275900000E0FF1201BC1202759000BC
:1002620001E0FF1201BC1202751202DE7F0A7E005B
:030272000202C0C5
:05020600900000EFF084
:10020B00E4A3F012029C7FA01201BC1202759000B5
:10021B0000E0FF1201BC12027512029C7FA11201B9
:10022B00BC120275E4FF12016F900001EFF0120295
:06023B00DE900001E0FF6F
:01024100229A
:10029C00D2A07F017E00120344D2A17F017E001206
:1002AC000344C2A07F017E00120344C2A17F017EE1
:0402BC0000020344F5
:1002DE00C2A07F017E00120344D2A17F017E0012D4
:0B02EE000344D2A07F017E0002034405
:1002F900C2A1C2A07F017E00120344D2A17F017E68
:0703090000120344C2A1220F
:10031000C2A1D2A07F017E00120344D2A17F017E40
:0703200000120344C2A122F8
:10027500E4900002F0D2A17F01FE12034430A012E7
:10028500900002E004F0E0D3946440F11202DE7FB6
:060295000122C2A17F005E
:01029B002240
:0501BC00900002EFF0CD
:1001C100E4A3F0C2A1F0900002E0FF5480D39400B8
:1001D1004004D2A08002C2A0EF25E0900002F07F8F
:1001E100017E00120344D2A17F017E00120344C2AA
:1001F100A17F017E00120344900003E004F0E0C3FC
:04020100940840C25B
:0102050022D6
:05016F00900002EFF01A
:10017400E4A3F0A3F0900003F0C2A17F017E00127B
:100184000344D2A1900004E025E0F030A003E00491
:10019400F07F017E00120344900003E004F0E0C30A
:1001A400940840D5900002E07005120310800312F9
:0701B40002F9900004E0FFD6
:0101BB002221
:100327003F065B4F666D7D077F6F777C395E79711E
:0103370000C5
:08035A0041000800410005000C
:0C033800438901758CFC758A18D28C2258
:10008F00E4900000F0900000E0FFC39402507AEF7C
:10009F00B40800504D9000ABF82828730200C3023B
:1000AF0000C70200CB0200CF0200D30200DB020028
:1000BF00E30200EBD2A4800ED2A48012D2A4801649
:1000CF00D2A4801AC2A4D2A3D2A28016C2A4D2A351
:1000DF00C2A2800EC2A4C2A3D2A28006C2A4C2A38F
:1000EF00C2A2900000E02406F582E43400F583E01C
:1000FF0090032793F5807F017E0012034FE4F58074
:09010F00900000E004F0020094ED
:0101180022C4
:10011900120338E4FF120206900005EFF0308D0E4D
:10012900C28D758CFC758A18900008E004F0900067
:1001390008E0B46418E4F0900005E004F0E0B46469
:1001490002E4F0900005E0FDE4FF12024290000590
:10015900E0FF75F00A84A3E5F0F0EF75F00A84A3D7
:06016900F012008F80ADD2
:0B034400EF1FAC0670011E4C70F6228B
:1002C000D3EF9400EE940040147D6E7C00ED1D7021
:0D02D000011CED4C70F7EF1F70E61E80E37F
:0102DD0022FE
:0B034F00EF1FAC0670011E4C70F62280
:03000000020003F8
:0C000300787FE4F6D8FD75810702004A02
:10000F00020119E493A3F8E493A34003F68001F2ED
:10001F0008DFF48029E493A3F85407240CC8C333F2
:10002F00C4540F4420C8834004F456800146F6DFC1
:10003F00E4800B010204081020408090035AE47EF4
:10004F00019360BCA3FF543F30E509541FFEE493B6
:10005F00A360010ECF54C025E060A840B8E493A37D
:10006F00FAE493A3F8E493A3C8C582C8CAC583CAA8
:10007F00F0A3C8C582C8CAC583CADFE9DEE780BE60
:01036200009A
:00000001FF
