:07100D0000000000000000DC
:080FF4000616C9E3CACFB6C816
:100FB600120FCE120F9D7F88120FE07F43120FEAA9
:080FC600120F5B120CB680F85B
:080CB6008F0B8E0A8D098C08DA
:100CBE00780C7C007D007BFF7A10790D7E007F071B
:100CCE00120C2DAF0BAE0AAD09AC08120ADC8E1356
:100CDE008F14AC13AD14E4120AA3A804A905AA0636
:100CEE00AB07AF0BAE0AAD09AC081208037B007A56
:100CFE0040791C78461208F8120ADCAB07AA06AE39
:100D0E0013AF147C007D0A120C537C007D0A120C6A
:100D1E00538D0CAE13AF147C007D0A120C538D0D47
:100D2E007C037DE8AF03AE02120C538F0E7C007D68
:100D3E0064AF03AE02120C537C007D0A120C538D6D
:100D4E000F7C007D0AAF03AE02120C537C007D0AAD
:100D5E00120C538D10AE02AF037C007D0A120C53A1
:100D6E008D117F80120FE07F54120FEA7F65120FF4
:100D7E00EA7F6D120FEA7F70120FEA7F65120FEA9B
:100D8E007F72120FEA7F61120FEA7F74120FEA7FF1
:100D9E0075120FEA7F72120FEA7F65120FEA7F3A21
:100DAE00120FEA7FC0120FE07F20120FEA7F20128F
:100DBE000FEAE50C2430FF120FEAE50D2430FF1286
:100DCE000FEA7F2E120FEAE50E2430FF120FEAE52E
:100DDE000F2430FF120FEAE5102430FF120FEAE560
:0C0DEE00112430FF120FEA7F43020FEACD
:100FCE00759850758920758780758DF3758BF3D262
:020FDE008E2261
:100F3100C2A58F807F017E00120F42D2A77F057E5E
:010F410000AF
:100F4200D3EF9400EE9400400F7DC77C01DCFEDD00
:080F5200FAEF1F70EB1E80E8AE
:010F5A002274
:0A0FE000C2A7C2A6120F31C2A72259
:0A0FEA00C2A7D2A6120F31C2A7223F
:100F9D007F38120FE07F0C120FE07F06120FE07FFB
:090FAD0001120FE07F80020FE049
:100F7F00D3EF9400EE940040147D6E7C00ED1D7055
:0D0F8F00011CED4C70F7EF1F70E61E80E3B3
:010F9C002232
:100F0600C2B77F467E00EF1FAC0670011E4C70F61E
:100F1600D2B7FEFF30B7110FBF00010ED3EF948892
:0A0F2600EE941340EF7F00227F01DC
:010F3000229E
:0C0E8600120F067F017E00120F7F7FCC50
:100E9200E4FBFAC2B7050AE50A70020509EF1392EC
:100EA200B7750900750A06E50A150AAC097002153C
:100EB200094C70F3D2B7EFC313FF0BBB00010AEB6F
:050EC20064084A70CE37
:010EC7002208
:100EC8007D087C00C2B70FBF0000D2B70FBF00007B
:100ED8000FBF0000A2B7E433C43333335480FBE9B7
:100EE800C3134BF97E007F04EF1FAA0670011E4A48
:0D0EF80070F6ED1D70011CED4C70C9AF01CE
:010F050022C9
:080FFD00120E867F44020E92E1
:08100500120E867FBE020E925E
:100F5B00120FFD121005120EC88F08120EC8EFFEED
:100F6B00E508FFFDAC06EC120AA3E4FBFA798078E6
:040F7B0040020A0125
:10080000020B48E86480F8E933E83360110460F0D3
:10081000ED33EC337009E8FCE9FDEAFEEBFF22045E
:1008200060DED3EB9FEA9EE99DE8C2E78CF0C2F759
:1008300095F0400CE8CCF8E9CDF9EACEFAEBCFFB25
:10084000120B1385D0F05804700320D5B3E8047060
:10085000075002B2D5020B5292D5EC0460F7E4CCFB
:10086000C0E0C398F8603B94186008400DD0E0FBEE
:10087000020B2AE4FBFAC9FC8028E830E406E4C94C
:10088000FBE4CAFCE830E305E4C9CACBFCE8540742
:100890006010F8C3E913F9EA13FAEB13FBEC13FC4D
:1008A000D8F130F52FC3E49CFCEF9BFFEE9AFEEDF0
:1008B00099FDD0E0FBEF4E4D4C701222DB03020B92
:1008C0004FEC2CFCEF33FFEE33FEED33FDED30E764
:1008D000EB020B2AEF2BFFEE3AFEED39FDD0E0FBE9
:1008E00050130BBB0003020B52ED13FDEE13FEEF92
:0808F00013FFEC13FC020B2ABC
:1008F800EC4D6011E8497017ED33EC3304600DE4FA
:10090800FCFFFEFD22E933E8330470F8020B4812BD
:100918000B1358046009E4CC2481500628500902BE
:100928000B52284003020B4FC0E0EB4A7044B980D9
:1009380006D0E0FB020B3EEF4E701CBD8008EBFFBB
:10094800EAFEE9FD80EBE98DF0A4FEE5F00209E19D
:10095800E9CDF9EAFEEBFFEF89F0A4FCE5F0CE89DA
:10096800F0A42EFFE435F0CD89F0A42DFEE435F097
:100978008067EF4E7005BD80D780C3EF8BF0A4ACC5
:10098800F0EE8BF0A42CFCE435F0F8EF8AF0A42C00
:10099800E5F038FCE433CB8DF0A42CFCE5F03BF813
:1009A800EE8AF0A42CFCE5F038F8E433CF89F0A403
:1009B8002CFCE5F038CF3400CE89F0A42FFFE5F009
:1009C8003EFEE433C98DF0A42EFEE5F039CD8AF061
:1009D800A42FFFE5F03EFEE43DFD33D0E0FB5007D9
:1009E8000BBB000F020B52EC2CFCEF33FFEE33FE77
:0609F800ED33FD020B2AA5
:1009FE00020B52EC5D046005E859047003020B48CB
:100A0E00120B13580460F6EC4860F2EC7004FDFE15
:100A1E00FF22C860DB2481C85009C39860025006CB
:100A2E00020B4F9850CAF582E9294B4A7005AB82EA
:100A3E00020B3E75F0007C1A7880C3EF9BEE9AEDA8
:100A4E0099400DC3EF9BFFEE9AFEED99FDE842F043
:100A5E00DC23ACF0D0E0FFD0E0FED0E0FDAB822096
:100A6E00E7101BEB60BAEC2CFCEF33FFEE33FEED20
:100A7E0033FD020B2AE803F830E705C0F075F000ED
:100A8E00EF2FFFEE33FEED33FD40B830E7C280AA04
:100A9E0075F020800E75F010800575F0087D007ED3
:100AAE00007F003392D530D503120CA8EC334010E2
:100ABE00EF33FFEE33FEED33FDEC33FCD5F0ED22DC
:0E0ACE00E5F0247EA2D513CC92E7CDCEFF2218
:100ADC00EDD2E7CD33EC3392D524814006E4FFFE12
:100AEC00FDFC22FCE4CFCECDCC24E0501174FF8071
:100AFC00EDC3CC13CCCD13CDCE13CECF13CF04700E
:070B0C00F030D5DE020CA859
:100B1300E9D2E7C933E833F892D5EDD2E7CD33EC28
:070B230033FC5002B2D522A1
:100B2A00EC30E7100FBF000C0EBE00080DBD00042C
:100B3A000BEB6014A2D5EB13FCED92E7FD2274FFD8
:100B4A00FCFDFEFF22E480F8A2D574FF13FC7D8031
:030B5A00E480EF45
:03000000020DFAF4
:0C0DFA00787FE4F6D8FD75811B020E41E5
:100B5D00E709F608DFFA8046E709F208DFFA803E7A
:100B6D0088828C83E709F0A3DFFA8032E309F60867
:100B7D00DFFA8078E309F208DFFA807088828C83CF
:100B8D00E309F0A3DFFA806489828A83E0A3F60883
:100B9D00DFFA805889828A83E0A3F208DFFA804C5D
:100BAD0080D280FA80C680D4806980F28033801034
:100BBD0080A680EA809A80A880DA80E280CA80339D
:100BCD0089828A83ECFAE493A3C8C582C8CCC58315
:100BDD00CCF0A3C8C582C8CCC583CCDFE9DEE780E5
:100BED000D89828A83E493A3F608DFF9ECFAA9F064
:100BFD00EDFB2289828A83ECFAE0A3C8C582C8CCBA
:100C0D00C583CCF0A3C8C582C8CCC583CCDFEADED2
:100C1D00E880DB89828A83E493A3F208DFF980CC34
:100C2D0088F0EF60010E4E60C388F0ED2402B4042D
:100C3D000050B9F582EB2402B4040050AF232345D4
:060C4D008223900BAD7341
:100C5300BC000BBE0029EF8DF084FFADF022E4CC85
:100C6300F875F008EF2FFFEE33FEEC33FCEE9DEC4E
:100C7300984005FCEE9DFE0FD5F0E9E4CEFD22ED94
:100C8300F8F5F0EE8420D21CFEADF075F008EF2FDE
:100C9300FFED33FD4007985006D5F0F222C398FDCF
:050CA3000FD5F0EA226C
:0E0CA800C3E49FFFE49EFEE49DFDE49CFC225D
:100E0600020FB6E493A3F8E493A34003F68001F23D
:100E160008DFF48029E493A3F85407240CC8C333ED
:100E2600C4540F4420C8834004F456800146F6DFBC
:100E3600E4800B0102040810204080900FF4E47E49
:100E4600019360BCA3FF543F30E509541FFEE493B1
:100E5600A360010ECF54C025E060A840B8E493A378
:100E6600FAE493A3F8E493A3C8C582C8CAC583CAA3
:100E7600F0A3C8C582C8CAC583CADFE9DEE780BE5B
:010FFC0000F4
:00000001FF
