:1002F5003F065B4F666D7D077F6F777C395E797151
:0103050000F7
:0903280042000300004100000046
:0C030600438901758CFC758A18D28C228A
:10018D00E4900005F0900005E0FFC394025037EFB6
:10019D0014600704700AC2A28002D2A2C2A3C2A434
:1001AD00900005E02401F582E43400F583E090022F
:1001BD00F593F5807F0A7E0012031DE4F580900013
:0601CD0005E004F080BF14
:0101D3002209
:10008F00120306E4FF1201D4900000EFF0308D163A
:10009F00C28D758CFC758A18900004E004F0700610
:1000AF00900003E004F0900003E07004A3E064DC30
:1000BF00701C900003F0A3F0900000E004F0E0B497
:1000CF006402E4F0900000E0FDE4FF1202109000E3
:1000DF0000E0FF75F00A84A3E5F0F0EF75F00A84F5
:0700EF00A3F012018D809CBB
:0B031200EF1FAC0670011E4C70F622BD
:10028E00D3EF9400EE940040147D6E7C00ED1D7053
:0D029E00011CED4C70F7EF1F70E61E80E3B1
:0102AB002230
:0B031D00EF1FAC0670011E4C70F622B2
:10021000900005EFF0A3EDF012026A7FA0120143F7
:10022000120243900005E0FF1201431202439000C6
:1002300006E0FF1201431202431202AC7F0A7E0065
:0302400002028E29
:0501D400900005EFF0B2
:1001D900E4A3F012026A7FA01201431202439000C5
:1001E90005E0FF12014312024312026A7FA11201C4
:1001F90043120243E4FF1200F6900006EFF01202E8
:06020900AC900006E0FFCE
:01020F0022CC
:10026A00D2A07F017E00120312D2A17F017E00126A
:10027A000312C2A07F017E00120312C2A17F017E77
:04028A000002031259
:1002AC00C2A07F017E00120312D2A17F017E001238
:0B02BC000312D2A07F017E000203129B
:1002C700C2A1C2A07F017E00120312D2A17F017ECC
:0702D70000120312C2A12274
:1002DE00C2A1D2A07F017E00120312D2A17F017EA5
:0702EE0000120312C2A1225D
:10024300E4900007F0D2A17F01FE12031230A01246
:10025300900007E004F0E0D3946440F11202AC7F15
:060263000122C2A17F0090
:010269002272
:05014300900007EFF041
:10014800E4A3F0C2A1F0900007E0FF5480D394002C
:100158004004D2A08002C2A0EF25E0900007F07F03
:10016800017E00120312D2A17F017E00120312C287
:10017800A17F017E00120312900008E004F0E0C3A2
:04018800940840C2D5
:01018C002250
:0500F600900007EFF08F
:1000FB00E4A3F0A3F0900008F0C2A17F017E0012F0
:10010B000312D2A1900009E025E0F030A003E00437
:10011B00F07F017E00120312900008E004F0E0C3B0
:10012B00940840D5900007E070051202DE800312A0
:07013B0002C7900009E0FF7C
:01014200229A
:03000000020003F8
:0C000300787FE4F6D8FD75810702004A02
:10000F0002008FE493A3F8E493A34003F68001F278
:10001F0008DFF48029E493A3F85407240CC8C333F2
:10002F00C4540F4420C8834004F456800146F6DFC1
:10003F00E4800B0102040810204080900328E47E26
:10004F00019360BCA3FF543F30E509541FFEE493B6
:10005F00A360010ECF54C025E060A840B8E493A37D
:10006F00FAE493A3F8E493A3C8C582C8CAC583CAA8
:10007F00F0A3C8C582C8CAC583CADFE9DEE780BE60
:0103310000CB
:00000001FF
